:100000000C942A000C9414160C94D4160C944C17CF
:100010000C947E0D0C944B0D0C9447000C9417100F
:100020000C944A100C94E40F0C943D130C940A1396
:100030000C9447000C9447000C9447000C94470024
:100040000C9447000C9447000C9447000C94470014
:100050000C94470011241FBECFE5D8E0DEBFCDBF12
:1000600011E0A0E6B0E0E6E2F7E702C005900D92ED
:10007000AC3BB107D9F711E0ACEBB1E001C01D9288
:10008000AB3DB107E1F70E94BE2F0C94913B0C945D
:100090000000EF92FF920F931F937B018C0120E0F1
:1000A00030E040E05FE40E94F50388238CF0C80153
:1000B000B70120E030E040E05FE40E94C1010E940F
:1000C00055049B01AC01205030404040504806C0D0
:1000D000C801B7010E9455049B01AC01B901CA01D6
:1000E0001F910F91FF90EF900895A0E0B0E0EBE733
:1000F000F0E00C94AC38DC012B01FA019C919230B9
:1001000008F439C1EB018881823008F433C194309E
:1001100069F4843009F02FC111969C91119789815F
:10012000981709F428C1ACE9B1E025C1843009F47D
:1001300021C18230A9F4923009F01DC19A01AD01AC
:1001400088E0EA010990AE01E90109929E0181501F
:10015000C1F7E201898111969C918923818308C1AD
:10016000923009F407C112962D903C901397EB0141
:100170008A819B811496AD90BD90CD90DC901797AD
:10018000EC80FD800E811F819101281B390BB90184
:1001900037FF04C066277727621B730B6032710537
:1001A0000CF061C0121613066CF537014801062EDB
:1001B00004C096948794779467940A94D2F721E0C8
:1001C00030E040E050E004C0220F331F441F551FB1
:1001D0006A95D2F721503040404050402E213F21B7
:1001E00040235123211531054105510521F021E01E
:1001F00030E040E050E079018A01E628F72808293C
:1002000019293CC0232BD1F1260E371E350146019A
:10021000062E04C096948794779467940A94D2F734
:1002200021E030E040E050E004C0220F331F441FC3
:10023000551F6A95D2F721503040404050402A2146
:100240003B214C215D21211531054105510521F04E
:1002500021E030E040E050E059016A01A628B728CB
:10026000C828D9280BC0821593052CF01C01AA249C
:10027000BB24650103C0EE24FF24870111969C91E5
:10028000D20111968C91981709F445C0992339F041
:10029000A80197012A193B094C095D0906C0A6016E
:1002A00095012E193F09400B510B57FD08C01182D3
:1002B0003382228224833583468357831DC081E0A5
:1002C00081833382228288279927DC01821B930B4A
:1002D000A40BB50B84839583A683B7830DC0220F2F
:1002E000331F441F551F24833583468357838281E0
:1002F000938101979383828324813581468157813D
:10030000DA01C9010197A109B1098F5F9F4FAF4F72
:10031000BF4328F30BC0918333822282EA0CFB1C7B
:100320000C1D1D1DE482F5820683178383E0808304
:10033000248135814681578157FF1AC0C901AA27F8
:1003400097FDA095BA2F81709070A070B0705695EF
:10035000479537952795822B932BA42BB52B848318
:100360009583A683B7838281938101969383828349
:10037000DF0101C0D201CD01CDB7DEB7E2E10C94BF
:10038000C838A0E2B0E0E7ECF1E00C94B83869833B
:100390007A838B839C832D833E834F835887E9E048
:1003A000EE2EF12CEC0EFD1ECE010196B7010E943F
:1003B0007E058E010F5E1F4FCE010596B8010E948B
:1003C0007E058A8991E089278A8BC701B801AE0131
:1003D000475E5F4F0E9475000E94A904A096E6E068
:1003E0000C94D438A0E2B0E0E8EFF1E00C94B83817
:1003F00069837A838B839C832D833E834F835887C5
:10040000F9E0EF2EF12CEC0EFD1ECE010196B701A6
:100410000E947E058E010F5E1F4FCE010596B8012A
:100420000E947E05C701B801AE01475E5F4F0E9482
:1004300075000E94A904A096E6E00C94D438A0E2CE
:10044000B0E0E5E2F2E00C94AC3869837A838B8308
:100450009C832D833E834F835887CE010196BE0136
:10046000675F7F4F0E947E05CE010596BE016F5EDD
:100470007F4F0E947E059985923088F0898982306D
:10048000C8F0943019F4823051F404C0843029F457
:10049000923081F48CE991E0C6C0923049F420E0BA
:1004A0009A858A89981321E02A87CE010996BBC0D4
:1004B000823049F420E09A858A89981321E02A8BBA
:1004C000CE014196B0C02D843E844F8458886D88FB
:1004D0007E888F88988CEE24FF248701AA24BB2471
:1004E000650140E050E060E070E0E0E0F0E0C10174
:1004F00081709070892BE9F0E60CF71C081D191D1E
:100500009A01AB012A0D3B1D4C1D5D1D80E090E062
:10051000A0E0B0E0E614F7040805190520F481E036
:1005200090E0A0E0B0E0BA01A901480F591F6A1F8E
:100530007B1FAA0CBB1CCC1CDD1C97FE08C081E0F5
:1005400090E0A0E0B0E0A82AB92ACA2ADB2A3196B6
:10055000E032F10549F0660C771C881C991C569412
:10056000479437942794C3CFFA85EA892B893C892D
:100570008B859C85280F391F2E5F3F4F17C0CA01FE
:1005800081709070892B61F016950795F794E79428
:1005900080E090E0A0E0B0E8E82AF92A0A2B1B2BC3
:1005A00076956795579547952F5F3F4F77FDE7CF36
:1005B0000CC0440F551F661F771F17FD4160EE0CDE
:1005C000FF1C001F111F21503040403090E05907A0
:1005D00090E0690790E4790760F32B8F3C8FDB0193
:1005E000CA018F779070A070B07080349105A1051A
:1005F000B10561F447FD0AC0E114F10401051105DC
:1006000029F0405C5F4F6F4F7F4F40781A8EFE1786
:1006100011F081E08A8F4D8F5E8F6F8F78A383E01A
:10062000898FCE0149960E94A904A096E2E10C941C
:10063000C838A8E1B0E0EFE1F3E00C94B438698386
:100640007A838B839C832D833E834F835887B9E0C5
:10065000EB2EF12CEC0EFD1ECE010196B7010E948F
:100660007E058E010F5E1F4FCE010596B8010E94D8
:100670007E052985223008F47EC03989323010F495
:10068000B8017CC08A859A8989278A87243011F02D
:10069000223031F4231709F06EC06CE971E06EC0AE
:1006A000343039F41D861E861F86188A1C861B86E8
:1006B00004C0323021F484E08987B7015FC02B8504
:1006C0003C858B899C89281B390B3C872B87ED84C3
:1006D000FE840F851889AD88BE88CF88D88CEA142F
:1006E000FB040C051D0540F4EE0CFF1C001F111F40
:1006F000215030403C872B8720E030E040E050E044
:1007000080E090E0A0E0B0E460E070E0EA14FB0478
:100710000C051D0540F0282B392B4A2B5B2BEA18C2
:10072000FB080C091D09B695A79597958795EE0CC2
:10073000FF1C001F111F6F5F7F4F6F31710531F775
:10074000DA01C9018F779070A070B0708034910584
:10075000A105B10561F427FD0AC0E114F10401050A
:10076000110529F0205C3F4F4F4F5F4F20782D87B8
:100770003E874F87588BBE01675F7F4FCB010E943A
:10078000A9046896EAE00C94D038A8E1B0E0EBEC5C
:10079000F3E00C94B83869837A838B839C832D8330
:1007A0003E834F83588789E0E82EF12CEC0EFD1E26
:1007B000CE010196B7010E947E058E010F5E1F4F8C
:1007C000CE010596B8010E947E058985823040F0F1
:1007D0008989823028F0C701B8010E94F60501C05E
:1007E0008FEF6896E6E00C94D438A8E1B0E0EBEF28
:1007F000F3E00C94B83869837A838B839C832D83D0
:100800003E834F83588789E0E82EF12CEC0EFD1EC5
:10081000CE010196B7010E947E058E010F5E1F4F2B
:10082000CE010596B8010E947E058985823040F090
:100830008989823028F0C701B8010E94F60501C0FD
:100840008FEF6896E6E00C94D438A8E1B0E0EBE2D4
:10085000F4E00C94B83869837A838B839C832D836E
:100860003E834F83588789E0E82EF12CEC0EFD1E65
:10087000CE010196B7010E947E058E010F5E1F4FCB
:10088000CE010596B8010E947E058985823040F030
:100890008989823028F0C701B8010E94F60501C09D
:1008A00081E06896E6E00C94D438ACE0B0E0EBE58B
:1008B000F4E00C94BC3869837A838B839C83CE01EB
:1008C0000196BE016B5F7F4F0E947E058D81823055
:1008D00061F1823050F1843021F48E81882351F10E
:1008E0002EC02F81388537FD20C06E812F31310514
:1008F0001CF06623F9F023C08EE190E0821B930B7D
:1009000029853A854B855C8504C056954795379572
:1009100027958A95D2F76623B1F05095409530958A
:1009200021953F4F4F4F5F4F0EC020E030E040E039
:1009300050E009C02FEF3FEF4FEF5FE704C020E02A
:1009400030E040E050E8B901CA012C96E2E00C9496
:10095000D838DF92EF92FF920F931F93FC01E4804F
:10096000F58006811781D1808081823048F480E053
:1009700090E0A0E1B0E0E82AF92A0A2B1B2BA5C0E1
:10098000843009F49FC0823021F4EE24FF248701D3
:1009900005C0E114F1040105110519F4E0E0F0E0EF
:1009A00096C0628173819FEF623879070CF05BC05B
:1009B00022E83FEF261B370B2A3131052CF020E0CF
:1009C00030E040E050E02AC0B801A701022E04C088
:1009D00076956795579547950A94D2F781E090E010
:1009E000A0E0B0E004C0880F991FAA1FBB1F2A9582
:1009F000D2F70197A109B1098E219F21A023B1232C
:100A00000097A105B10521F081E090E0A0E0B0E001
:100A10009A01AB01282B392B4A2B5B2BDA01C90138
:100A20008F779070A070B07080349105A105B105EA
:100A300039F427FF09C0205C3F4F4F4F5F4F04C080
:100A4000215C3F4F4F4F5F4FE0E0F0E02030A0E0EF
:100A50003A07A0E04A07A0E45A0710F0E1E0F0E00E
:100A600079018A0127C06038710564F5FB01E158FE
:100A7000FF4FD801C7018F779070A070B07080349D
:100A80009105A105B10539F4E7FE0DC080E490E0C1
:100A9000A0E0B0E004C08FE390E0A0E0B0E0E80E9A
:100AA000F91E0A1F1B1F17FF05C016950795F7941F
:100AB000E794319687E016950795F794E7948A9521
:100AC000D1F705C0EE24FF248701EFEFF0E06E2F91
:100AD000679566276795902F9F77D794DD24D794E5
:100AE0008E2F8695492F462B582F5D29B701CA01B5
:100AF0001F910F91FF90EF90DF900895FC01DB01B3
:100B0000408151812281622F6F7770E0221F22275E
:100B1000221F9381892F880F822B282F30E0991F65
:100B20009927991F11969C93119721153105A9F5C5
:100B3000411551056105710511F482E037C082E865
:100B40009FEF13969C938E9312979A01AB0167E0E7
:100B5000220F331F441F551F6A95D1F783E08C93F2
:100B60000DC0220F331F441F551F12968D919C916B
:100B70001397019713969C938E931297203080E0E1
:100B8000380780E0480780E4580758F314962D93FF
:100B90003D934D935C93179708952F3F310579F45A
:100BA000411551056105710519F484E08C93089590
:100BB00064FF03C081E08C9312C01C9210C02F57B9
:100BC000304013963C932E93129783E08C9387E0EA
:100BD000440F551F661F771F8A95D1F770641496CE
:100BE0004D935D936D937C93179708951F93DC014C
:100BF000FB019C91923008F447C08081823008F458
:100C000043C0943051F411961C91843099F5818140
:100C1000682F70E0611B71093FC0843021F0923071
:100C200031F48230B9F18181882389F12DC0119688
:100C30001C9111978230F1F081811817D9F4129626
:100C40002D913C911397828193818217930794F0A1
:100C500028173907BCF014968D919D910D90BC9189
:100C6000A02D2481358146815781281739074A07ED
:100C70005B0718F4112341F00AC082179307A407F9
:100C8000B50740F4112319F061E070E005C06FEF83
:100C90007FEF02C060E070E0CB011F910895DF9309
:100CA000CF93CDB7DEB727970FB6F894DEBF0FBE50
:100CB000CDBF69837A838B839C834D8389819A819D
:100CC000AB81BC810097A105B10519F41F821E827A
:100CD0004AC08D81882311F189819A81AB81BC81C1
:100CE000880F991FAA1FBB1F880F991FAA1FBB1F20
:100CF000880F991FAA1FBB1F9C01AD0180E092E1E4
:100D0000AAE7B0E0BC01CD010E948A38DA01C9012E
:100D10009C01215030403F832E8325C089819A81D8
:100D2000AB81BC81880F991FAA1FBB1F880F991F19
:100D3000AA1FBB1F880F991FAA1FBB1F880F991FCF
:100D4000AA1FBB1F9C01AD0180E092E1AAE7B0E0C1
:100D5000BC01CD010E948A38DA01C9019C012150F1
:100D600030403F832E838E819F8127960FB6F89463
:100D7000DEBF0FBECDBFCF91DF910895DF93CF933C
:100D8000CDB7DEB729970FB6F894DEBF0FBECDBF43
:100D90009D838C831B821A8219828C819D8100978E
:100DA00009F47BC0EC81FD818481882341F0ABE2B2
:100DB000B0E0EBE2F0E0808182608C9307C0ABE2B0
:100DC000B0E0EBE2F0E080818D7F8C93EC81FD81DF
:100DD00080819181A281B381EC81FD812481BC015C
:100DE000CD01422F0E944F069A838983E9E2F0E009
:100DF00089818083E0E4F0E089819A81892F9927B5
:100E00008F7080838B8180688B83EC81FD818581ED
:100E1000282F30E03987288788859985813091058A
:100E200031F0288539852230310529F007C08B81C2
:100E300080628B8303C08B8180638B83EC81FD8117
:100E40008681282F30E03F832E838E819F810097FB
:100E500041F02E813F812130310519F48B8188606A
:100E60008B838B8186608B83E0E4F0E08B818083D1
:100E7000AAE2B0E0EAE2F0E080818B7F8C93AAE204
:100E8000B0E0EAE2F0E0808180618C93AAE2B0E019
:100E9000EAE2F0E0808188608C9329960FB6F8949E
:100EA000DEBF0FBECDBFCF91DF910895DF93CF930B
:100EB0000F92CDB7DEB78983EBE2F0E08081882F17
:100EC00090E0807290700097B9F3ECE2F0E08981D5
:100ED00080830F90CF91DF910895DF93CF9300D05F
:100EE0000F92CDB7DEB79A83898389819A81009763
:100EF00011F41B820DC0EBE2F0E080818823DCF767
:100F0000ECE2F0E08081E981FA81808381E08B83EB
:100F10008B810F900F900F90CF91DF910895DF9309
:100F2000CF9300D000D0CDB7DEB79C838B838B816D
:100F30009C810097A1F08B819C819A8389830AC050
:100F4000E981FA8180810E94560789819A81019600
:100F50009A838983E981FA818081882389F70F90B8
:100F60000F900F900F90CF91DF910895DF93CF9363
:100F700000D000D00F92CDB7DEB79D838C838C81DB
:100F80009D81009751F11A8281E38983CE010396F6
:100F90000E946D078823C1F08B818A30A9F08B8174
:100FA0008D3091F09A818981981770F48A81282F69
:100FB00030E08C819D81FC01E20FF31F8B818083E7
:100FC0008A818F5F8A83E2CF8A81282F30E08C81EB
:100FD0009D81FC01E20FF31F10820F900F900F9084
:100FE0000F900F90CF91DF910895DF93CF93CDB7FE
:100FF000DEB727970FB6F894DEBF0FBECDBF89834B
:101000008981282F30E03F832E838E819F8181301C
:101010009105F9F0AE81BF81A230B10534F42E8183
:101020003F812115310561F02FC08E819F81823073
:101030009105C1F0AE81BF81A330B105E1F024C0BC
:1010400081E090E0A0E0B0E08A839B83AC83BD8325
:1010500023C084E090E0A0E0B0E08A839B83AC836F
:10106000BD831AC080E190E0A0E0B0E08A839B835A
:10107000AC83BD8311C080E490E0A0E0B0E08A833F
:101080009B83AC83BD8308C081E090E0A0E0B0E02A
:101090008A839B83AC83BD838A819B81AC81BD8124
:1010A000BC01CD0127960FB6F894DEBF0FBECDBFB1
:1010B000CF91DF910895EF92FF920F931F93DF93EB
:1010C000CF93CDB7DEB762970FB6F894DEBF0FBEF1
:1010D000CDBF69877A878B879C872D873E874F870F
:1010E000588B098B89890E94F507DC01CB018D8320
:1010F0009E83AF83B8878D859E85AF85B88900971D
:10110000A105B10511F41A8A57C089859A85AB8566
:10111000BC852D853E854F855889BC01CD010E9437
:101120008A38DA01C90189839A83AB83BC838981B8
:101130009A81AB81BC8181319105A105B10510F483
:101140001A8A3AC089819A81AB81BC810F2EF0EF57
:10115000EF2EFFEFFF2EFFEF0F2FFFEF1F2FF02DD2
:10116000E80EF91E0A1F1B1F8D819E81AF81B88575
:101170009C01AD01220F331F441F551FC801B70149
:101180000E948A38DA01C90189839A83AB83BC83C0
:1011900089819A81AB81BC818F3F9105A105B10501
:1011A00049F040F08FEF90E0A0E0B0E089839A83AF
:1011B000AB83BC8389818A8B8A8962960FB6F89447
:1011C000DEBF0FBECDBFCF91DF911F910F91FF907A
:1011D000EF900895EF92FF920F93DF93CF93CDB7E7
:1011E000DEB729970FB6F894DEBF0FBECDBF9A8346
:1011F000898389819A81009709F49CC089819A81A9
:101200002CEB31E03E832D8398878F833BE0398739
:10121000EF81F88500802F8138852F5F3F4F388719
:101220002F83ED81FE8100822D813E812F5F3F4F14
:101230003E832D833985315039878985882341F74D
:10124000A1E2B0E0E1E2F0E080818C7F8C93E98163
:10125000FA818085E82FF0E0FC83EB832B813C81D1
:101260002230310591F08B819C8183309105A9F06A
:10127000EB81FC81E130F105B9F4A1E2B0E0E1E2FB
:10128000F0E0808181608C930FC0A1E2B0E0E1E2E8
:10129000F0E0808182608C9307C0A1E2B0E0E1E2DF
:1012A000F0E0808183608C93E981FA8181858823D5
:1012B00021F5EE24FF246894E5F8E981FA81808124
:1012C0009181A281B381E981FA81248135814681AE
:1012D0005781E981FA81E085BC01CD010E2F0E9482
:1012E0005B08F701808382E060E040E00E9407181D
:1012F00082E061E040E00E940718E981FA8181857F
:101300008130A1F4A2E2B0E0E981FA818285882FE0
:1013100090E0880F991F8C9382E060E040E00E948B
:10132000071882E061E040E00E940718E6E5F0E07F
:1013300084E0808329960FB6F894DEBF0FBECDBF40
:10134000CF91DF910F91FF90EF900895DF93CF93AE
:10135000CDB7DEB7E6E5F0E084EA8083E6E5F0E0CD
:101360008081881F8827881F882F90E090700097C1
:10137000A9F3E1E2F0E08081887FCF91DF910895C9
:10138000DF93CF93CDB7DEB7E6E5F0E084EA808364
:10139000E6E5F0E08081881F8827881F882F90E08D
:1013A00090700097A9F3E1E2F0E08081887FCF910F
:1013B000DF910895DF93CF93CDB7DEB7E6E5F0E098
:1013C00084E98083CF91DF910895DF93CF930F92CB
:1013D000CDB7DEB78983E3E2F0E089818083E6E57B
:1013E000F0E084E88083E6E5F0E08081881F8827CC
:1013F000881F882F90E090700097A9F3E1E2F0E059
:101400008081887F0F90CF91DF910895DF93CF93F4
:1014100000D00F92CDB7DEB79A83898389819A81F4
:10142000009719F48FEF8B831BC0E6E5F0E084ECA6
:101430008083E6E5F0E08081881F8827881F882F59
:1014400090E090700097A9F3E3E2F0E08081E981F9
:10145000FA818083E1E2F0E08081982F987F9B837E
:101460008B810F900F900F90CF91DF910895DF93B4
:10147000CF9300D00F92CDB7DEB79A83898389814D
:101480009A81009719F48FEF8B831BC0E6E5F0E09B
:1014900084E88083E6E5F0E08081881F8827881F44
:1014A000882F90E090700097A9F3E3E2F0E080814C
:1014B000E981FA818083E1E2F0E08081982F987FD2
:1014C0009B838B810F900F900F90CF91DF910895A8
:1014D000DF93CF93CDB7DEB7E1E2F0E08081887F84
:1014E000CF91DF910895DF93CF93CDB7DEB7E6E5D7
:1014F000F0E084EC8083E6E5F0E08081881F8827B7
:10150000881F882F90E090700097A9F3E1E2F0E047
:101510008081887FCF91DF910895DF93CF9300D0B2
:101520000F92CDB7DEB79A83898389819A8100971C
:1015300019F48FEF8B831BC0E6E5F0E084EC808329
:10154000E6E5F0E08081881F8827881F882F90E0DB
:1015500090700097A9F3E3E2F0E08081E981FA81DD
:101560008083E1E2F0E08081982F987F9B838B81DC
:101570000F900F900F90CF91DF910895DF93CF934D
:101580000F92CDB7DEB78983E3E2F0E089818083F3
:10159000E6E5F0E084EC8083E6E5F0E08081881FFA
:1015A0008827881F882F90E090700097A9F3E1E2C8
:1015B000F0E08081887F0F90CF91DF910895DF93D5
:1015C000CF9300D00F92CDB7DEB789838981282FC2
:1015D00030E03B832A838A819B818330910509F423
:1015E00070C02A813B812430310584F48A819B813B
:1015F00081309105D1F12A813B81223031050CF0F7
:101600004AC08A819B810097D1F0C8C02A813B8162
:101610002530310509F481C08A819B81853091058F
:101620000CF465C02A813B812630310509F48BC05A
:101630008A819B818730910509F49BC0AFC0A5E4E6
:10164000B0E0E5E4F0E080818B7F8C93A5E4B0E02E
:10165000E5E4F0E080818D7F8C93A5E4B0E0E5E4E3
:10166000F0E080818E7F8C9399C0A5E4B0E0E5E442
:10167000F0E080818B7F8C93A5E4B0E0E5E4F0E0BE
:1016800080818D7F8C93A5E4B0E0E5E4F0E080817B
:1016900081608C9383C0A5E4B0E0E5E4F0E0808154
:1016A0008B7F8C93A5E4B0E0E5E4F0E0808182607C
:1016B0008C93A5E4B0E0E5E4F0E080818E7F8C932C
:1016C0006DC0A5E4B0E0E5E4F0E080818B7F8C9311
:1016D000A5E4B0E0E5E4F0E0808182608C93A5E4CD
:1016E000B0E0E5E4F0E0808181608C9357C0A5E430
:1016F000B0E0E5E4F0E0808184608C93A5E4B0E0A4
:10170000E5E4F0E080818D7F8C93A5E4B0E0E5E432
:10171000F0E080818E7F8C9341C0A5E4B0E0E5E4E9
:10172000F0E0808184608C93A5E4B0E0E5E4F0E033
:1017300080818D7F8C93A5E4B0E0E5E4F0E08081CA
:1017400081608C932BC0A5E4B0E0E5E4F0E08081FB
:1017500084608C93A5E4B0E0E5E4F0E080818260F1
:101760008C93A5E4B0E0E5E4F0E080818E7F8C937B
:1017700015C0A5E4B0E0E5E4F0E0808184608C93DE
:10178000A5E4B0E0E5E4F0E0808182608C93A5E41C
:10179000B0E0E5E4F0E0808181608C930F900F90E1
:1017A0000F90CF91DF910895DF93CF930F92CDB734
:1017B000DEB78983A5E4B0E0E5E4F0E080818F7BCB
:1017C0008C93A5E4B0E0E5E4F0E08081877F8C9322
:1017D000E4E4F0E01082A9E5B0E0E9E5F0E0808122
:1017E00080648C9389810E94DF0A0F90CF91DF91F2
:1017F0000895DF93CF9300D000D00F92CDB7DEB71E
:1018000089836A834B83A5E4B0E0E5E4F0E080815E
:101810008F7B8C93A5E4B0E0E5E4F0E08081886004
:101820008C93E3E4F0E08B8180838981282F30E082
:101830003D832C838C819D818130910521F12C8108
:101840003D81223031052CF48C819D81009761F01F
:1018500046C02C813D812230310521F18C819D8152
:101860008330910571F13BC0A5E4B0E0E5E4F0E020
:1018700080818F7D8C93A5E4B0E0E5E4F0E0808189
:101880008F7E8C932CC0A5E4B0E0E5E4F0E080818D
:101890008F7D8C93A5E4B0E0E5E4F0E08081806189
:1018A0008C931DC0A5E4B0E0E5E4F0E080818062A7
:1018B0008C93A5E4B0E0E5E4F0E080818F7E8C932A
:1018C0000EC0A5E4B0E0E5E4F0E0808180628C9396
:1018D000A5E4B0E0E5E4F0E0808180618C93A9E5C7
:1018E000B0E0E9E5F0E0808180688C938A810E9415
:1018F000DF0A0F900F900F900F900F90CF91DF9114
:101900000895DF93CF9300D000D0CDB7DEB78983A1
:101910006A83A5E4B0E0E5E4F0E0808180648C9324
:10192000A5E4B0E0E5E4F0E0808188608C938981F3
:10193000282F30E03C832B838B819C81009731F0F2
:101940002B813C812130310581F01DC0A5E4B0E040
:10195000E5E4F0E0808180628C93A5E4B0E0E5E40A
:10196000F0E080818F7E8C930EC0A5E4B0E0E5E4CA
:10197000F0E0808180628C93A5E4B0E0E5E4F0E0E3
:10198000808180618C938A810E94DF0A0F900F9082
:101990000F900F90CF91DF910895DF93CF9300D0F8
:1019A00000D0CDB7DEB789836A83A5E4B0E0E5E473
:1019B000F0E0808180648C93A5E4B0E0E5E4F0E0A1
:1019C0008081877F8C938981282F30E03C832B8313
:1019D0008B819C81009731F02B813C812130310536
:1019E00081F01DC0A5E4B0E0E5E4F0E08081806214
:1019F0008C93A5E4B0E0E5E4F0E080818F7E8C93E9
:101A00000EC0A5E4B0E0E5E4F0E0808180628C9354
:101A1000A5E4B0E0E5E4F0E0808180618C938A8108
:101A20000E94DF0A0F900F900F900F90CF91DF91DF
:101A30000895DF93CF930F92CDB7DEB78983E3E4A8
:101A4000F0E0898180830F90CF91DF910895DF933B
:101A5000CF9300D0CDB7DEB79A83898389819A81ED
:101A60009093C8018093C7010F900F90CF91DF91A1
:101A70000895DF93CF9300D0CDB7DEB79A838983E3
:101A800089819A819093CA018093C9010F900F9028
:101A9000CF91DF9108951F920F920FB60F921124EC
:101AA0002F933F934F935F936F937F938F939F9366
:101AB000AF93BF93EF93FF93DF93CF93CDB7DEB791
:101AC0008091C7019091C801009729F0E091C7016A
:101AD000F091C8010995CF91DF91FF91EF91BF91EE
:101AE000AF919F918F917F916F915F914F913F91B6
:101AF0002F910F900FBE0F901F9018951F920F926D
:101B00000FB60F9211242F933F934F935F936F93D0
:101B10007F938F939F93AF93BF93EF93FF93DF9345
:101B2000CF93CDB7DEB78091C9019091CA010097DC
:101B300029F0E091C901F091CA010995CF91DF9197
:101B4000FF91EF91BF91AF919F918F917F916F9195
:101B50005F914F913F912F910F900FBE0F901F906B
:101B60001895DF93CF9300D00F92CDB7DEB789835E
:101B70008981282F30E03B832A838A819B818230B0
:101B8000910509F44EC02A813B812330310554F47C
:101B90008A819B810097C9F02A813B8121303105E0
:101BA00051F196C08A819B818430910509F465C00A
:101BB0002A813B81243031050CF449C08A819B8104
:101BC0008530910509F46FC083C0AEE4B0E0EEE467
:101BD000F0E080818B7F8C93AEE4B0E0EEE4F0E047
:101BE00080818D7F8C93AEE4B0E0EEE4F0E0808104
:101BF0008E7F8C936DC0AEE4B0E0EEE4F0E08081C7
:101C00008B7F8C93AEE4B0E0EEE4F0E080818D7FDA
:101C10008C93AEE4B0E0EEE4F0E0808181608C93E0
:101C200057C0AEE4B0E0EEE4F0E080818B7F8C93AF
:101C3000AEE4B0E0EEE4F0E0808182608C93AEE44C
:101C4000B0E0EEE4F0E080818E7F8C9341C0AEE4A2
:101C5000B0E0EEE4F0E080818B7F8C93AEE4B0E006
:101C6000EEE4F0E0808182608C93AEE4B0E0EEE4DC
:101C7000F0E0808181608C932BC0AEE4B0E0EEE4B4
:101C8000F0E0808184608C93AEE4B0E0EEE4F0E0BC
:101C900080818D7F8C93AEE4B0E0EEE4F0E0808153
:101CA0008E7F8C9315C0AEE4B0E0EEE4F0E080816E
:101CB00084608C93AEE4B0E0EEE4F0E080818D7F50
:101CC0008C93AEE4B0E0EEE4F0E0808181608C9330
:101CD0000F900F900F90CF91DF910895DF93CF93E6
:101CE0000F92CDB7DEB78983EFE4F0E01082EEE427
:101CF000F0E01082ECE4F0E011821082A9E5B0E09F
:101D0000E9E5F0E0808184608C9389810E94B10DC7
:101D10000F90CF91DF910895DF93CF9300D000D043
:101D200000D0CDB7DEB789836A835C834B83EFE451
:101D3000F0E01082EEE4F0E088E08083ECE4F0E094
:101D400011821082EAE4F0E08B819C819183808390
:101D50008981282F30E03E832D838D819E818130C3
:101D6000910521F12D813E81223031052CF48D81A8
:101D70009E81009761F046C02D813E812230310561
:101D800021F18D819E818330910571F13BC0AFE4DB
:101D9000B0E0EFE4F0E080818F778C93AFE4B0E0C7
:101DA000EFE4F0E080818F7B8C932CC0AFE4B0E057
:101DB000EFE4F0E080818F778C93AFE4B0E0EFE464
:101DC000F0E0808180648C931DC0AFE4B0E0EFE46C
:101DD000F0E0808180688C93AFE4B0E0EFE4F0E065
:101DE00080818F7B8C930EC0AFE4B0E0EFE4F0E035
:101DF000808180688C93AFE4B0E0EFE4F0E0808114
:101E000080648C93A9E5B0E0E9E5F0E08081806131
:101E10008C938A810E94B10D26960FB6F894DEBF8E
:101E20000FBECDBFCF91DF910895DF93CF9300D048
:101E300000D000D0CDB7DEB789836A835C834B8343
:101E4000EFE4F0E082E08083EEE4F0E088E180837C
:101E5000E6E4F0E08B819C8191838083EAE4F0E00A
:101E600011821082E8E4F0E0118210828981282F2B
:101E700030E03E832D838D819E81009731F02D814E
:101E80003E8121303105F1F039C0AFE4B0E0EFE43C
:101E9000F0E0808180688C93AFE4B0E0EFE4F0E0A4
:101EA00080818F7B8C93AFE4B0E0EFE4F0E0808141
:101EB00080628C93AFE4B0E0EFE4F0E080818F7E4D
:101EC0008C931CC0AFE4B0E0EFE4F0E08081806868
:101ED0008C93AFE4B0E0EFE4F0E0808180648C9319
:101EE000AFE4B0E0EFE4F0E0808180628C93AFE497
:101EF000B0E0EFE4F0E0808180618C938A810E9401
:101F0000B10D26960FB6F894DEBF0FBECDBFCF91B0
:101F1000DF910895DF93CF9300D0CDB7DEB79A83DA
:101F20008983EAE4F0E089819A81918380830F902C
:101F30000F90CF91DF910895DF93CF9300D0CDB76D
:101F4000DEB79A838983E8E4F0E089819A819183FE
:101F500080830F900F90CF91DF910895DF93CF93FF
:101F600000D0CDB7DEB79A83898389819A81909317
:101F7000CC018093CB010F900F90CF91DF9108950A
:101F8000DF93CF9300D0CDB7DEB79A838983898161
:101F90009A819093CE018093CD010F900F90CF91B5
:101FA000DF910895DF93CF9300D0CDB7DEB79A834A
:101FB000898389819A819093D0018093CF010F907A
:101FC0000F90CF91DF9108951F920F920FB60F924D
:101FD00011242F933F934F935F936F937F938F932E
:101FE0009F93AF93BF93EF93FF93DF93CF93CDB7BF
:101FF000DEB78091CB019091CC01009729F0E09160
:10200000CB01F091CC010995CF91DF91FF91EF9138
:10201000BF91AF919F918F917F916F915F914F9100
:102020003F912F910F900FBE0F901F9018951F9208
:102030000F920FB60F9211242F933F934F935F93FC
:102040006F937F938F939F93AF93BF93EF93FF9380
:10205000DF93CF93CDB7DEB78091CD019091CE01C4
:10206000009729F0E091CD01F091CE010995CF9133
:10207000DF91FF91EF91BF91AF919F918F917F91F0
:102080006F915F914F913F912F910F900FBE0F90E5
:102090001F9018951F920F920FB60F9211242F9335
:1020A0003F934F935F936F937F938F939F93AF93E0
:1020B000BF93EF93FF93DF93CF93CDB7DEB78091BC
:1020C000CF019091D001009729F0E091CF01F091DC
:1020D000D0010995CF91DF91FF91EF91BF91AF9121
:1020E0009F918F917F916F915F914F913F912F9130
:1020F0000F900FBE0F901F901895DF93CF9300D0D5
:102100000F92CDB7DEB789838981282F30E03B83DA
:102110002A838A819B818230910509F44EC02A81ED
:102120003B812330310554F48A819B810097C9F0AB
:102130002A813B812130310551F196C08A819B81F2
:102140008430910509F465C02A813B812430310532
:102150000CF449C08A819B818530910509F46FC0D8
:1021600083C0A3E5B0E0E3E5F0E080818B7F8C9352
:10217000A3E5B0E0E3E5F0E080818D7F8C93A3E5FB
:10218000B0E0E3E5F0E080818E7F8C936DC0A3E545
:10219000B0E0E3E5F0E080818B7F8C93A3E5B0E0D5
:1021A000E3E5F0E080818D7F8C93A3E5B0E0E3E58B
:1021B000F0E0808181608C9357C0A3E5B0E0E3E557
:1021C000F0E080818B7F8C93A3E5B0E0E3E5F0E065
:1021D000808182608C93A3E5B0E0E3E5F0E080814C
:1021E0008E7F8C9341C0A3E5B0E0E3E5F0E0808111
:1021F0008B7F8C93A3E5B0E0E3E5F0E08081826023
:102200008C93A3E5B0E0E3E5F0E0808181608C93FE
:102210002BC0A3E5B0E0E3E5F0E0808184608C931F
:10222000A3E5B0E0E3E5F0E080818D7F8C93A3E54A
:10223000B0E0E3E5F0E080818E7F8C9315C0A3E5EC
:10224000B0E0E3E5F0E0808184608C93A3E5B0E04A
:10225000E3E5F0E080818D7F8C93A3E5B0E0E3E5DA
:10226000F0E0808181608C930F900F900F90CF9160
:10227000DF910895DF93CF930F92CDB7DEB78983B7
:10228000E2E5F0E01082A3E5B0E0E3E5F0E0808174
:1022900080688C93A3E5B0E0E3E5F0E08081877F80
:1022A0008C93A3E5B0E0E3E5F0E080818F7B8C9335
:1022B00089810E947D10A9E5B0E0E9E5F0E0808128
:1022C00081608C9381E00E9467150F90CF91DF9120
:1022D0000895DF93CF9300D000D00F92CDB7DEB733
:1022E00089836A834B83E2E5F0E01082ECE5F0E05D
:1022F0008B818083A3E5B0E0E3E5F0E08081806836
:102300008C93A3E5B0E0E3E5F0E0808188608C93F6
:10231000A3E5B0E0E3E5F0E080818F7B8C938981D9
:10232000282F30E03D832C838C819D818130910565
:1023300021F12C813D81223031052CF48C819D814D
:10234000009761F046C02C813D812230310521F19A
:102350008C819D818330910571F13BC0A3E5B0E094
:10236000E3E5F0E080818F7D8C93A3E5B0E0E3E5C9
:10237000F0E080818F7E8C932CC0A3E5B0E0E3E594
:10238000F0E080818F7D8C93A3E5B0E0E3E5F0E0A1
:10239000808180618C931DC0A3E5B0E0E3E5F0E0AF
:1023A000808180628C93A3E5B0E0E3E5F0E080817A
:1023B0008F7E8C930EC0A3E5B0E0E3E5F0E0808172
:1023C00080628C93A3E5B0E0E3E5F0E0808180617A
:1023D0008C938A810E947D10A9E5B0E0E9E5F0E0E8
:1023E000808182608C9381E00E9467150F900F902E
:1023F0000F900F900F90CF91DF910895DF93CF93BF
:1024000000D000D0CDB7DEB789836A83ECE5F0E079
:102410001082A3E5B0E0E3E5F0E0808180648C9376
:10242000A3E5B0E0E3E5F0E0808188608C938A81E9
:102430000E947D108981282F30E03C832B838B8183
:102440009C8181309105C1F02B813C812230310586
:1024500011F18B819C81009761F5A3E5B0E0E3E584
:10246000F0E080818F7D8C93A3E5B0E0E3E5F0E0C0
:1024700080818F7E8C931DC0A3E5B0E0E3E5F0E0A2
:10248000808180628C93A3E5B0E0E3E5F0E0808199
:102490008F7E8C930EC0A3E5B0E0E3E5F0E0808191
:1024A00080628C93A3E5B0E0E3E5F0E08081806199
:1024B0008C930F900F900F900F90CF91DF91089514
:1024C000DF93CF9300D000D0CDB7DEB789836A8386
:1024D000ECE5F0E01082A3E5B0E0E3E5F0E0808118
:1024E000877F8C93A3E5B0E0E3E5F0E08081806432
:1024F0008C938A810E947D108981282F30E03C8353
:102500002B838B819C8181309105C1F02B813C8193
:102510002230310511F18B819C81009761F5A3E593
:10252000B0E0E3E5F0E080818F7D8C93A3E5B0E03F
:10253000E3E5F0E080818F7E8C931DC0A3E5B0E0E1
:10254000E3E5F0E0808180628C93A3E5B0E0E3E511
:10255000F0E080818F7E8C930EC0A3E5B0E0E3E5D0
:10256000F0E0808180628C93A3E5B0E0E3E5F0E0E9
:10257000808180618C930F900F900F900F90CF917E
:10258000DF910895DF93CF930F92CDB7DEB78983A4
:10259000ECE5F0E0898180830F90CF91DF91089581
:1025A000DF93CF930F92CDB7DEB78983ECE5F0E0F0
:1025B000898180830F90CF91DF910895DF93CF932E
:1025C00000D0CDB7DEB79A83898389819A8100973D
:1025D00031F089819A819093D2018093D1010F903B
:1025E0000F90CF91DF910895DF93CF9300D0CDB7B7
:1025F000DEB79A83898389819A81009731F0898136
:102600009A819093D4018093D3010F900F90CF9132
:10261000DF9108951F920F920FB60F9211242F93FE
:102620003F934F935F936F937F938F939F93AF935A
:10263000BF93EF93FF93DF93CF93CDB7DEB7809136
:10264000D1019091D201009729F0E091D101F09150
:10265000D2010995CF91DF91FF91EF91BF91AF9199
:102660009F918F917F916F915F914F913F912F91AA
:102670000F900FBE0F901F9018951F920F920FB6DC
:102680000F9211242F933F934F935F936F937F93F8
:102690008F939F93AF93BF93EF93FF93DF93CF936A
:1026A000CDB7DEB78091D3019091D401009729F086
:1026B000E091D301F091D4010995CF91DF91FF9181
:1026C000EF91BF91AF919F918F917F916F915F91AA
:1026D0004F913F912F910F900FBE0F901F90189523
:1026E000DF93CF9300D000D000D0CDB7DEB7898381
:1026F0006A8381E065E041E00E94071881E067E0BD
:1027000041E00E94071881E064E041E00E94071860
:1027100081E066E040E00E940718EDE2F0E080E52D
:1027200080838A81282F30E03E832D838D819E8196
:1027300081309105E9F02D813E81223031052CF464
:102740008D819E81009761F02CC02D813E812230C9
:102750003105B9F08D819E8183309105D9F021C07A
:10276000ADE2B0E0EDE2F0E08081837F8C9319C0B0
:10277000ADE2B0E0EDE2F0E08081837F84608C9395
:1027800010C0ADE2B0E0EDE2F0E08081837F8860D0
:102790008C9307C0ADE2B0E0EDE2F0E080818C60A8
:1027A0008C938981282F30E03C832B838B819C8103
:1027B0008330910509F455C02B813C8124303105CB
:1027C0007CF48B819C818130910561F12B813C816E
:1027D00022303105B4F58B819C810097A1F07FC038
:1027E0002B813C812530310509F45BC08B819C81B4
:1027F000853091050CF445C02B813C812630310594
:1028000009F45FC06CC0AEE2B0E0EEE2F0E08081BF
:1028100081608C93ADE2B0E0EDE2F0E080818C7FEE
:102820008C935DC0AEE2B0E0EEE2F0E080818E7F9E
:102830008C93ADE2B0E0EDE2F0E080818C7F8C9390
:102840004EC0AEE2B0E0EEE2F0E0808181608C93B9
:10285000ADE2B0E0EDE2F0E080818C7F81608C93AE
:102860003EC0AEE2B0E0EEE2F0E080818E7F8C937D
:10287000ADE2B0E0EDE2F0E080818C7F81608C938E
:102880002EC0AEE2B0E0EEE2F0E0808181608C9399
:10289000ADE2B0E0EDE2F0E080818C7F82608C936D
:1028A0001EC0AEE2B0E0EEE2F0E080818E7F8C935D
:1028B000ADE2B0E0EDE2F0E080818C7F82608C934D
:1028C0000EC0AEE2B0E0EEE2F0E080818E7F8C934D
:1028D000ADE2B0E0EDE2F0E0808183608C9326967B
:1028E0000FB6F894DEBF0FBECDBFCF91DF91089534
:1028F000DF93CF9300D00F92CDB7DEB7898381E00D
:1029000066E041E00E94071881E065E040E00E9437
:10291000071881E067E040E00E94071881E064E06A
:1029200040E00E940718EDE2F0E080E480838981B6
:10293000282F30E03B832A838A819B818130910557
:10294000E9F02A813B81223031052CF48A819B8178
:10295000009761F02CC02A813B8122303105B9F00B
:102960008A819B8183309105D9F021C0ADE2B0E02E
:10297000EDE2F0E08081837F8C9319C0ADE2B0E09E
:10298000EDE2F0E08081837F84608C9310C0ADE243
:10299000B0E0EDE2F0E08081837F88608C9307C037
:1029A000ADE2B0E0EDE2F0E080818C608C930F90BE
:1029B0000F900F90CF91DF910895DF93CF930F92F7
:1029C000CDB7DEB78983EFE2F0E089818083EEE264
:1029D000F0E080818823DCF7EFE2F0E080810F9067
:1029E000CF91DF910895DF93CF93CDB7DEB7EFE2BC
:1029F000F0E08FEF8083EEE2F0E080818823DCF767
:102A0000EFE2F0E08081CF91DF910895DF93CF93E3
:102A100000D00F92CDB7DEB79B838A8319820EC098
:102A20008981282F30E08A819B81FC01E20FF31F0E
:102A300080810E94DD1489818F5F89838981282F9D
:102A400030E08A819B81FC01E20FF31F80818823A3
:102A500019F08981823320F383E20E94DD140F9004
:102A60000F900F90CF91DF910895DF93CF9300D017
:102A700000D0CDB7DEB79C838B831A820E94F314FB
:102A800089838A81282F30E08B819C81FC01E20FB1
:102A9000F31F898180838A818F5F8A838981833252
:102AA00019F08A81813350F38A81882F90E09C014C
:102AB000215030408B819C81FC01E20FF31F10827A
:102AC0000F900F900F900F90CF91DF910895DF93AB
:102AD000CF930F92CDB7DEB789838981813041F4DE
:102AE000AFE5B0E0EFE5F0E0808180688C9307C04F
:102AF000AFE5B0E0EFE5F0E080818F778C930F9049
:102B0000CF91DF910895DF93CF9300D000D0CDB760
:102B1000DEB789836A838981813041F4ABE5B0E017
:102B2000EBE5F0E0808180648C9307C0ABE5B0E01A
:102B3000EBE5F0E080818F7B8C938A81282F30E059
:102B40003C832B838B819C818130910521F12B81EA
:102B50003C81223031052CF48B819C81009761F0FF
:102B600046C02B813C812230310521F18B819C8133
:102B70008330910571F13BC0A5E5B0E0E5E5F0E0FB
:102B800080818E7F8C93A5E5B0E0E5E5F0E0808163
:102B90008D7F8C932CC0A5E5B0E0E5E5F0E0808169
:102BA00081608C93A5E5B0E0E5E5F0E080818D7F64
:102BB0008C931DC0A5E5B0E0E5E5F0E080818E7F57
:102BC0008C93A5E5B0E0E5E5F0E0808182608C9330
:102BD0000EC0A5E5B0E0E5E5F0E0808181608C9372
:102BE000A5E5B0E0E5E5F0E0808182608C930F9090
:102BF0000F900F900F90CF91DF910895DF93CF93B7
:102C000000D0CDB7DEB79A83898389819A810097F6
:102C100031F089819A819093D6018093D5010F90EC
:102C20000F90CF91DF9108951F920F920FB60F92E0
:102C300011242F933F934F935F936F937F938F93C1
:102C40009F93AF93BF93EF93FF93DF93CF93CDB752
:102C5000DEB78091D5019091D601009729F0E091DF
:102C6000D501F091D6010995CF91DF91FF91EF91B8
:102C7000BF91AF919F918F917F916F915F914F9194
:102C80003F912F910F900FBE0F901F901895DF93DB
:102C9000CF9300D000D0CDB7DEB789836A83898116
:102CA000813041F4ABE5B0E0EBE5F0E08081806895
:102CB0008C9307C0ABE5B0E0EBE5F0E080818F7767
:102CC0008C938A81282F30E03C832B838B819C81DD
:102CD0008130910521F12B813C81223031052CF48A
:102CE0008B819C81009761F046C02B813C81223012
:102CF000310521F18B819C818330910571F13BC0BD
:102D0000A5E5B0E0E5E5F0E080818B7F8C93A5E55B
:102D1000B0E0E5E5F0E08081877F8C932CC0A5E5ED
:102D2000B0E0E5E5F0E0808184608C93A5E5B0E05B
:102D3000E5E5F0E08081877F8C931DC0A5E5B0E0DC
:102D4000E5E5F0E080818B7F8C93A5E5B0E0E5E5DB
:102D5000F0E0808188608C930EC0A5E5B0E0E5E5E9
:102D6000F0E0808184608C93A5E5B0E0E5E5F0E0DB
:102D7000808188608C930F900F900F900F90CF916F
:102D8000DF910895DF93CF9300D0CDB7DEB79A835C
:102D9000898389819A819093D8018093D7010F907C
:102DA0000F90CF91DF9108951F920F920FB60F925F
:102DB00011242F933F934F935F936F937F938F9340
:102DC0009F93AF93BF93EF93FF93DF93CF93CDB7D1
:102DD000DEB78091D7019091D801009729F0E0915A
:102DE000D701F091D8010995CF91DF91FF91EF9133
:102DF000BF91AF919F918F917F916F915F914F9113
:102E00003F912F910F900FBE0F901F901895DF9359
:102E1000CF9300D0CDB7DEB789836A8389818130B3
:102E200041F4ABE5B0E0EBE5F0E0808180628C93AB
:102E300007C0ABE5B0E0EBE5F0E080818F7D8C93DF
:102E40008A81823041F4A4E5B0E0E4E5F0E08081DD
:102E50008F7B8C930AC08A81833039F4A4E5B0E07B
:102E6000E4E5F0E0808180648C930F900F90CF9127
:102E7000DF910895DF93CF9300D0CDB7DEB79A836B
:102E8000898389819A819093DA018093D9010F9087
:102E90000F90CF91DF9108951F920F920FB60F926E
:102EA00011242F933F934F935F936F937F938F934F
:102EB0009F93AF93BF93EF93FF93DF93CF93CDB7E0
:102EC000DEB78091D9019091DA01009729F0E09165
:102ED000D901F091DA010995CF91DF91FF91EF913E
:102EE000BF91AF919F918F917F916F915F914F9122
:102EF0003F912F910F900FBE0F901F901895DF9369
:102F0000CF9300D000D0CDB7DEB789836A838981A3
:102F1000843090F58981282F30E03C832B838B818E
:102F20009C8181309105D1F02B813C81223031058B
:102F30002CF48B819C81009761F01EC02B813C8119
:102F40002230310581F08B819C818330910581F0A5
:102F500013C0EAE3F0E08A8180830EC0E7E3F0E08B
:102F60008A81808309C0E4E3F0E08A81808304C021
:102F7000E1E3F0E08A8180830F900F900F900F9033
:102F8000CF91DF910895DF93CF9300D000D0CDB7DC
:102F9000DEB789836A838981843090F58981282FFF
:102FA00030E03C832B838B819C8181309105D1F073
:102FB0002B813C81223031052CF48B819C81009740
:102FC00061F01EC02B813C812230310581F08B8164
:102FD0009C818330910581F013C0EBE3F0E08A819E
:102FE00080830EC0E8E3F0E08A81808309C0E5E3D6
:102FF000F0E08A81808304C0E2E3F0E08A8180838C
:103000000F900F900F900F90CF91DF910895DF9365
:10301000CF9300D000D00F92CDB7DEB789836A83FB
:103020004B838A81883008F0D5C08981843008F0CC
:10303000D1C08981282F30E03D832C838C819D81F4
:103040008130910509F443C02C813D812230310546
:103050002CF48C819D81009771F0BCC02C813D8146
:103060002230310509F45FC08C819D818330910548
:1030700009F485C0AFC08B818130A1F4AAE3B0E030
:10308000EAE3F0E08081482F8A81282F30E081E058
:1030900090E0022E02C0880F991F0A94E2F7842B59
:1030A0008C9398C0AAE3B0E0EAE3F0E08081482F77
:1030B0008A81282F30E081E090E0022E02C0880F44
:1030C000991F0A94E2F7809584238C9383C08B81A7
:1030D0008130A1F4A7E3B0E0E7E3F0E08081482F7E
:1030E0008A81282F30E081E090E0022E02C0880F14
:1030F000991F0A94E2F7842B8C936CC0A7E3B0E08D
:10310000E7E3F0E08081482F8A81282F30E081E0DA
:1031100090E0022E02C0880F991F0A94E2F7809572
:1031200084238C9357C08B818130A1F4A4E3B0E059
:10313000E4E3F0E08081482F8A81282F30E081E0AD
:1031400090E0022E02C0880F991F0A94E2F7842BA8
:103150008C9340C0A4E3B0E0E4E3F0E08081482F2A
:103160008A81282F30E081E090E0022E02C0880F93
:10317000991F0A94E2F7809584238C932BC08B814E
:103180008130A1F4A1E3B0E0E1E3F0E08081482FD9
:103190008A81282F30E081E090E0022E02C0880F63
:1031A000991F0A94E2F7842B8C9314C0A1E3B0E03A
:1031B000E1E3F0E08081482F8A81282F30E081E030
:1031C00090E0022E02C0880F991F0A94E2F78095C2
:1031D00084238C930F900F900F900F900F90CF91AE
:1031E000DF910895DF93CF9300D000D00F92CDB739
:1031F000DEB789836A834B838A81883008F0D5C023
:103200008981843008F0D1C08981282F30E03D8346
:103210002C838C819D818130910509F443C02C81E0
:103220003D81223031052CF48C819D81009771F015
:10323000BCC02C813D812230310509F45FC08C81F6
:103240009D818330910509F485C0AFC08B818130A9
:10325000A1F4ABE3B0E0EBE3F0E08081482F8A819A
:10326000282F30E081E090E0022E02C0880F991FE5
:103270000A94E2F7842B8C9398C0ABE3B0E0EBE3C5
:10328000F0E08081482F8A81282F30E081E090E0B3
:10329000022E02C0880F991F0A94E2F780958423BA
:1032A0008C9383C08B818130A1F4A8E3B0E0E8E384
:1032B000F0E08081482F8A81282F30E081E090E083
:1032C000022E02C0880F991F0A94E2F7842B8C9378
:1032D0006CC0A8E3B0E0E8E3F0E08081482F8A8189
:1032E000282F30E081E090E0022E02C0880F991F65
:1032F0000A94E2F7809584238C9357C08B818130A8
:10330000A1F4A5E3B0E0E5E3F0E08081482F8A81F5
:10331000282F30E081E090E0022E02C0880F991F34
:103320000A94E2F7842B8C9340C0A5E3B0E0E5E378
:10333000F0E08081482F8A81282F30E081E090E002
:10334000022E02C0880F991F0A94E2F78095842309
:103350008C932BC08B818130A1F4A2E3B0E0E2E337
:10336000F0E08081482F8A81282F30E081E090E0D2
:10337000022E02C0880F991F0A94E2F7842B8C93C7
:1033800014C0A2E3B0E0E2E3F0E08081482F8A813C
:10339000282F30E081E090E0022E02C0880F991FB4
:1033A0000A94E2F7809584238C930F900F900F90EE
:1033B0000F900F90CF91DF910895DF93CF9300D0BE
:1033C00000D0CDB7DEB789836A838A81883008F060
:1033D00072C08981843008F06EC08981282F30E066
:1033E0003C832B838B819C818130910549F12B811A
:1033F0003C81223031052CF48B819C81009761F057
:103400005AC02B813C812230310571F18B819C8126
:1034100083309105E9F14FC0ABE3B0E0EBE3F0E0BE
:103420008081482F8A81282F30E081E090E0022EB1
:1034300002C0880F991F0A94E2F784278C933BC03F
:10344000A8E3B0E0E8E3F0E08081482F8A81282FEC
:1034500030E081E090E0022E02C0880F991F0A94AC
:10346000E2F784278C9327C0A5E3B0E0E5E3F0E022
:103470008081482F8A81282F30E081E090E0022E61
:1034800002C0880F991F0A94E2F784278C9313C017
:10349000A2E3B0E0E2E3F0E08081482F8A81282FA8
:1034A00030E081E090E0022E02C0880F991F0A945C
:1034B000E2F784278C930F900F900F900F90CF918D
:1034C000DF910895DF93CF9300D000D00F92CDB756
:1034D000DEB789836A838A81883018F489818430D1
:1034E00010F01D826DC08981282F30E03C832B8332
:1034F0004B815C814130510549F18B819C81823047
:10350000910534F42B813C812115310561F057C0C0
:103510004B815C814230510561F18B819C8183300C
:103520009105D1F14CC0E9E3F0E08081282F30E033
:103530008A81882F90E0A90102C0559547958A9508
:10354000E2F7CA01582F51705D833AC0E6E3F0E01C
:103550008081282F30E08A81882F90E0A90102C065
:10356000559547958A95E2F7CA01582F51705D83AA
:1035700027C0E3E3F0E08081282F30E08A81882FA4
:1035800090E0A90102C0559547958A95E2F7CA01D6
:10359000582F51705D8314C0E0E3F0E08081282F44
:1035A00030E08A81882F90E0A90102C055954795A7
:1035B0008A95E2F7CA01582F51705D8301C01D82C0
:1035C0008D810F900F900F900F900F90CF91DF9102
:1035D0000895DF93CF9300D000D0CDB7DEB78983B5
:1035E0008981843010F01C8234C08981282F30E01A
:1035F0003B832A838A819B8181309105D1F02A8186
:103600003B81223031052CF48A819B81009761F047
:103610001FC02A813B812230310581F08A819B8144
:103620008330910581F014C0E9E3F0E090819C8340
:1036300010C0E6E3F0E020812C830BC0E3E3F0E070
:1036400030813C8306C0E0E3F0E080818C8301C0E0
:103650001C828C810F900F900F900F90CF91DF9173
:103660000895DF93CF9300D000D000D0CDB7DEB760
:1036700089836A838981282F30E03E832D838D8161
:103680009E8181309105C1F02D813E81223031052E
:1036900011F18D819E81009761F5A7E2B0E0E7E22C
:1036A000F0E080818F7B8C93A7E2B0E0E7E2F0E06E
:1036B00080818F778C931DC0A7E2B0E0E7E2F0E055
:1036C000808180648C93A7E2B0E0E7E2F0E0808143
:1036D0008F778C930EC0A7E2B0E0E7E2F0E0808144
:1036E00080648C93A7E2B0E0E7E2F0E0808180683C
:1036F0008C93A7E2B0E0E7E2F0E080818F7D8C93CD
:10370000A6E2B0E0E6E2F0E0808180688C93A6E279
:10371000B0E0E6E2F0E08081877F8C938A81282FF9
:1037200030E03C832B838B819C818430910509F4AC
:103730006BC02B813C81253031058CF48B819C81C1
:1037400082309105A9F12B813C81233031050CF0A9
:1037500045C08B819C8181309105A1F0ACC02B814B
:103760003C812630310509F47BC08B819C818630F9
:1037700091050CF45FC02B813C812730310509F4A1
:1037800085C099C0A6E2B0E0E6E2F0E08081816009
:103790008C93A6E2B0E0E6E2F0E080818D7F8C932E
:1037A000A6E2B0E0E6E2F0E080818B7F8C9383C0FC
:1037B000A6E2B0E0E6E2F0E080818E7F8C93A6E2A4
:1037C000B0E0E6E2F0E0808182608C93A6E2B0E0B7
:1037D000E6E2F0E080818B7F8C936DC0A6E2B0E0E2
:1037E000E6E2F0E0808181608C93A6E2B0E0E6E260
:1037F000F0E0808182608C93A6E2B0E0E6E2F0E047
:1038000080818B7F8C9357C0A6E2B0E0E6E2F0E0C7
:1038100080818E7F8C93A6E2B0E0E6E2F0E08081CA
:103820008D7F8C93A6E2B0E0E6E2F0E080818460D8
:103830008C9341C0A6E2B0E0E6E2F0E080818160D6
:103840008C93A6E2B0E0E6E2F0E080818D7F8C937D
:10385000A6E2B0E0E6E2F0E0808184608C932BC0C9
:10386000A6E2B0E0E6E2F0E080818E7F8C93A6E2F3
:10387000B0E0E6E2F0E0808182608C93A6E2B0E006
:10388000E6E2F0E0808184608C9315C0A6E2B0E0AF
:10389000E6E2F0E0808181608C93A6E2B0E0E6E2AF
:1038A000F0E0808182608C93A6E2B0E0E6E2F0E096
:1038B000808184608C9326960FB6F894DEBF0FBE8D
:1038C000CDBFCF91DF910895DF93CF930F92CDB706
:1038D000DEB78983898187708983A7E2B0E0E7E258
:1038E000F0E08081982F907E8981892B8C93A6E2CD
:1038F000B0E0E6E2F0E0808180648C93E6E2F0E004
:103900008081882F90E0807190700097B9F3A6E2D3
:10391000B0E0E6E2F0E0808180618C93E4E2F0E0E8
:10392000808191810F90CF91DF910895DF93CF93A4
:1039300000D000D0CDB7DEB780E00E94641C9C832D
:103940008B838B819C81CC01A0E0B0E028E833E13F
:1039500040E050E0BC01CD010E946B38DC01CB019E
:1039600026EF37E240E050E0BC01CD010E948A38EA
:10397000DA01C9019A83898389819A810F900F9016
:103980000F900F90CF91DF910895DF93CF93CDB734
:10399000DEB780E066E041E00E94071880E067E063
:1039A00041E00E940718CF91DF910895DF93CF93F4
:1039B0000F92CDB7DEB789838981813031F480E001
:1039C00066E041E00E94F21808C08981823029F443
:1039D00080E067E041E00E94F2180F90CF91DF9104
:1039E0000895DF93CF930F92CDB7DEB78983898196
:1039F000813031F480E066E040E00E94F21808C0B7
:103A00008981823029F480E067E040E00E94F2186A
:103A10000F90CF91DF910895DF93CF9300D000D026
:103A2000CDB7DEB781E00E94641C9C838B838B81C1
:103A30009C81CC01A0E0B0E028E833E140E050E018
:103A4000BC01CD010E946B38DC01CB012FEF33E0CC
:103A500040E050E0BC01CD010E948A38DA01C90182
:103A60009A83898389819A810F900F900F900F908C
:103A7000CF91DF910895EF92FF920F931F93DF9301
:103A8000CF93CDB7DEB72A970FB6F894DEBF0FBE3F
:103A9000CDBF0E940C1D9E838D838D819E810097DA
:103AA00029F41F82188619861A862CC028E833E16B
:103AB0008D819E81A901481B590BCA01CC01A0E050
:103AC000B0E020E137E240E050E0BC01CD010E94CF
:103AD0006B387B018C018D819E819C0140E050E020
:103AE000C801B7010E948A38DA01C90189839A8323
:103AF000AB83BC8389819A81AB81BC818F8398879A
:103B0000A987BA878F819885A985BA85BC01CD011F
:103B10002A960FB6F894DEBF0FBECDBFCF91DF91CE
:103B20001F910F91FF90EF900895DF93CF9300D0F6
:103B30000F92CDB7DEB70E940C1D9B838A838A81CA
:103B40009B81CC01A0E0B0E024E630E040E050E012
:103B5000BC01CD010E946B38DC01CB0128E833E1C8
:103B600040E050E0BC01CD010E948A38DA01C90171
:103B7000898389810F900F900F90CF91DF910895E5
:103B8000DF93CF93CDB7DEB76C970FB6F894DEBF57
:103B90000FBECDBF81E062E041E00E94071881E0E6
:103BA00063E041E00E94071880E090E0A0EAB1E401
:103BB000898F9A8FAB8FBC8F698D7A8D8B8D9C8D01
:103BC00020E030E04AEF54E40E941F02DC01CB0108
:103BD0008D8B9E8BAF8BB88F6D897E898F89988DE9
:103BE00020E030E040E85FE30E94250488232CF4C5
:103BF00081E090E09C8B8B8B3FC06D897E898F89A3
:103C0000988D20E03FEF4FE757E40E94C503181658
:103C10004CF5698D7A8D8B8D9C8D20E030E040E2F3
:103C200051E40E941F02DC01CB01BC01CD010E94C6
:103C30004900DC01CB019C8B8B8B0FC088EC90E0A2
:103C40009A8B898B89899A890197F1F79A8B898B4D
:103C50008B899C8901979C8B8B8B8B899C89009786
:103C600069F714C06D897E898F89988D0E944900FB
:103C7000DC01CB019C8B8B8B8B899C89988B8F87EC
:103C80008F8598890197F1F7988B8F8783E064E09F
:103C900041E00E94071883E065E041E00E940718B8
:103CA00083E066E041E00E94071883E067E041E0BE
:103CB0000E94071880E090E0A0EAB1E48B879C871F
:103CC000AD87BE876B857C858D859E8520E030E045
:103CD0004AEF54E40E941F02DC01CB018F839887D6
:103CE000A987BA876F81788589859A8520E030E039
:103CF00040E85FE30E94250488232CF481E090E0F3
:103D00009E838D833FC06F81788589859A8520E069
:103D10003FEF4FE757E40E94C50318164CF56B853B
:103D20007C858D859E8520E030E040E251E40E9454
:103D30001F02DC01CB01BC01CD010E944900DC0166
:103D4000CB019E838D830FC088EC90E09C838B8396
:103D50008B819C810197F1F79C838B838D819E8160
:103D600001979E838D838D819E81009769F714C092
:103D70006F81788589859A850E944900DC01CB0195
:103D80009E838D838D819E819A83898389819A8187
:103D90000197F1F79A83898383E30E94E41E82E30B
:103DA0000E94E41E88E20E94E41E8CE00E94E41E51
:103DB00081E00E94E41E6C960FB6F894DEBF0FBE41
:103DC000CDBFCF91DF9108950F931F93DF93CF93D2
:103DD000CDB7DEB7C559D0400FB6F894DEBF0FBEE1
:103DE000CDBFFE01EB56FF4F808381E062E040E0F3
:103DF0000E94F218FE01EF56FF4F80E090E0A0E82D
:103E0000BFE380839183A283B3838E0103571F4F47
:103E1000FE01EF56FF4F60817181828193812BEA11
:103E20003AEA4AE250E40E941F02DC01CB01F801A9
:103E300080839183A283B383FE01E357FF4F6081A8
:103E400071818281938120E030E040E85FE30E944D
:103E50002504882334F4FE01E457FF4F81E080837A
:103E6000E0C0FE01E357FF4F608171818281938141
:103E700020E030E04FE753E40E94C50318160CF031
:103E8000C0C0FE01EF56FF4F608171818281938136
:103E900020E030E04AE754E40E941903DC01CB0142
:103EA000FE01E857FF4F80839183A283B3838E0185
:103EB0000C571F4FFE01E857FF4F608171818281CF
:103EC000938120E030E04AEF54E40E941F02DC01BD
:103ED000CB01F80180839183A283B383FE01EC5769
:103EE000FF4F608171818281938120E030E040E862
:103EF0005FE30E942504882344F4FE01EE57FF4F40
:103F000081E090E09183808364C0FE01EC57FF4F15
:103F1000608171818281938120E03FEF4FE757E418
:103F20000E94C50318160CF043C0FE01E857FF4F6E
:103F3000608171818281938120E030E040E251E430
:103F40000E941F02DC01CB018E010E571F4FBC01E6
:103F5000CD010E944900DC01CB01F80191838083EF
:103F60001FC0FE01E058FF4F88EC90E091838083F2
:103F7000FE01E058FF4F808191810197F1F7FE012A
:103F8000E058FF4F91838083DE01AE57BF4FFE01A3
:103F9000EE57FF4F80819181019711969C938E93EC
:103FA000FE01EE57FF4F808191810097D1F64BC003
:103FB0008E010E571F4FFE01EC57FF4F608171813C
:103FC000828193810E944900DC01CB01F801918339
:103FD0008083DE01A258BF4FFE01EE57FF4F808164
:103FE000918111969C938E93FE01E258FF4F808140
:103FF00091810197F1F7FE01E258FF4F9183808391
:1040000022C08E0104571F4FFE01E357FF4F60810E
:104010007181828193810E944900DC01CB01F8010A
:104020008083DE01A358BF4FFE01E457FF4F80811C
:104030008C93FE01E358FF4F80818A95F1F7FE01D2
:10404000E358FF4F808381E063E041E00E94F21873
:10405000FE01E758FF4F80E090E0A0E8BFE38083D7
:104060009183A283B3838E010B581F4FFE01E75843
:10407000FF4F60817181828193812BEA3AEA4AE2A3
:1040800050E40E941F02DC01CB01F8018083918380
:10409000A283B383FE01EB58FF4F6081718182815F
:1040A000938120E030E040E85FE30E94250488230C
:1040B00034F4FE01EC58FF4F81E08083E0C0FE0144
:1040C000EB58FF4F608171818281938120E030E065
:1040D0004FE753E40E94C50318160CF0C0C0FE0160
:1040E000E758FF4F608171818281938120E030E049
:1040F0004AE754E40E941903DC01CB01FE01E059B8
:10410000FF4F80839183A283B3838E0104591F4F95
:10411000FE01E059FF4F608171818281938120E02F
:1041200030E04AEF54E40E941F02DC01CB01F801A9
:1041300080839183A283B383FE01E459FF4F6081A2
:1041400071818281938120E030E040E85FE30E944A
:104150002504882344F4FE01E659FF4F81E090E0F6
:104160009183808364C0FE01E459FF4F60817181B7
:104170008281938120E03FEF4FE757E40E94C5031F
:1041800018160CF043C0FE01E059FF4F60817181A9
:104190008281938120E030E040E251E40E941F02DE
:1041A000DC01CB018E0106591F4FBC01CD010E94DD
:1041B0004900DC01CB01F801918380831FC0FE011F
:1041C000E859FF4F88EC90E091838083FE01E85925
:1041D000FF4F808191810197F1F7FE01E859FF4F70
:1041E00091838083DE01A659BF4FFE01E659FF4F40
:1041F00080819181019711969C938E93FE01E659DF
:10420000FF4F808191810097D1F64BC08E010659F6
:104210001F4FFE01E459FF4F6081718182819381BC
:104220000E944900DC01CB01F80191838083DE010B
:10423000AA59BF4FFE01E659FF4F80819181119627
:104240009C938E93FE01EA59FF4F808191810197E3
:10425000F1F7FE01EA59FF4F9183808322C08E015E
:104260000C581F4FFE01EB58FF4F60817181828116
:1042700093810E944900DC01CB01F8018083DE01BB
:10428000AB59BF4FFE01EC58FF4F80818C93FE016C
:10429000EB59FF4F80818A95F1F7FE01EB59FF4FF3
:1042A0008083FE01EB56FF4F8081882F90E0807164
:1042B0009070959587959595879595958795959502
:1042C0008795982F83E064E0492F0E94F218FE0141
:1042D000EB56FF4F8081882F90E08072907095950B
:1042E00087959595879595958795959587959595B6
:1042F0008795982F83E065E0492F0E94F218FE0110
:10430000EB56FF4F8081882F90E080749070082ECC
:10431000892F000C881F990B000C881F991F982F5C
:1043200083E066E0492F0E94F218FE01EB56FF4F32
:104330008081982F991F9927991F83E067E0492F63
:104340000E94F218FE01EF59FF4F80E090E0A0E8D4
:10435000BFE380839183A283B3838E01035A1F4FEF
:10436000FE01EF59FF4F608171818281938120E0CE
:1043700030E04AEF54E40E941F02DC01CB01F80157
:1043800080839183A283B383FE01E35AFF4F608150
:1043900071818281938120E030E040E85FE30E94F8
:1043A0002504882344F4FE01E55AFF4F81E090E0A4
:1043B0009183808364C0FE01E35AFF4F6081718165
:1043C0008281938120E03FEF4FE757E40E94C503CD
:1043D00018160CF043C0FE01EF59FF4F6081718148
:1043E0008281938120E030E040E251E40E941F028C
:1043F000DC01CB018E01055A1F4FBC01CD010E948B
:104400004900DC01CB01F801918380831FC0FE01CC
:10441000E75AFF4F88EC90E091838083FE01E75AD2
:10442000FF4F808191810197F1F7FE01E75AFF4F1D
:1044300091838083DE01A55ABF4FFE01E55AFF4FED
:1044400080819181019711969C938E93FE01E55A8C
:10445000FF4F808191810097D1F627C08E01055AC8
:104460001F4FFE01E35AFF4F60817181828193816A
:104470000E944900DC01CB01F80191838083DE01B9
:10448000A95ABF4FFE01E55AFF4F808191818D935C
:104490009C93FE01E95AFF4F808191810197F1F7CA
:1044A000FE01E95AFF4F9183808381E063E040E0A1
:1044B0000E94F218FE01ED5AFF4F80E090E0A0E864
:1044C000BFE380839183A283B3838E01015B1F4F7F
:1044D000FE01ED5AFF4F60817181828193812BEA49
:1044E0003AEA4AE250E40E941F02DC01CB01F801E3
:1044F00080839183A283B383FE01E15BFF4F6081E0
:1045000071818281938120E030E040E85FE30E9486
:104510002504882334F4FE01E25BFF4F81E08083B1
:10452000E0C0FE01E15BFF4F608171818281938178
:1045300020E030E04FE753E40E94C50318160CF06A
:10454000C0C0FE01ED5AFF4F60817181828193816D
:1045500020E030E04AE754E40E941903DC01CB017B
:10456000FE01E65BFF4F80839183A283B3838E01BC
:104570000A5B1F4FFE01E65BFF4F60817181828104
:10458000938120E030E04AEF54E40E941F02DC01F6
:10459000CB01F80180839183A283B383FE01EA5BA0
:1045A000FF4F608171818281938120E030E040E89B
:1045B0005FE30E942504882344F4FE01EC5BFF4F77
:1045C00081E090E09183808364C0FE01EA5BFF4F4D
:1045D000608171818281938120E03FEF4FE757E452
:1045E0000E94C50318160CF043C0FE01E65BFF4FA6
:1045F000608171818281938120E030E040E251E46A
:104600000E941F02DC01CB018E010C5B1F4FBC011D
:10461000CD010E944900DC01CB01F8019183808328
:104620001FC0FE01EE5BFF4F88EC90E0918380831A
:10463000FE01EE5BFF4F808191810197F1F7FE0152
:10464000EE5BFF4F91838083DE01AC5BBF4FFE01C9
:10465000EC5BFF4F80819181019711969C938E9323
:10466000FE01EC5BFF4F808191810097D1F642C043
:104670008E010C5B1F4FFE01EA5BFF4F6081718171
:10468000828193810E944900DC01CB01F801918372
:104690008083DE01A05CBF4FFE01EC5BFF4F808199
:1046A000918111969C938E93FE01E05CFF4F808177
:1046B00091810197F1F7FE01E05CFF4F91838083C8
:1046C00019C08E01025B1F4FFE01E15BFF4F60814D
:1046D0007181828193810E944900DC01CB01F80144
:1046E0008083FE01E25BFF4F80818FAF8FAD8A95A3
:1046F000F1F78FAF81E063E041E00E94F21880E0C3
:1047000090E0A0E8BFE38BAF9CAFADAFBEAF6BADA9
:104710007CAD8DAD9EAD2BEA3AEA4AE250E40E94B0
:104720001F02DC01CB018FAB98AFA9AFBAAF6FA965
:1047300078AD89AD9AAD20E030E040E85FE30E94BB
:10474000250488231CF481E08EAB91C06FA978AD5D
:1047500089AD9AAD20E030E04FE753E40E94C503F5
:1047600018160CF07BC06BAD7CAD8DAD9EAD20E01E
:1047700030E04AE754E40E941903DC01CB018AAB24
:104780009BABACABBDAB6AA97BA98CA99DA920E072
:1047900030E04AEF54E40E941F02DC01CB018EA7F7
:1047A0009FA7A8ABB9AB6EA57FA588A999A920E062
:1047B00030E040E85FE30E94250488232CF481E088
:1047C00090E09DA78CA73FC06EA57FA588A999A959
:1047D00020E03FEF4FE757E40E94C50318164CF561
:1047E0006AA97BA98CA99DA920E030E040E251E4B0
:1047F0000E941F02DC01CB01BC01CD010E944900D7
:10480000DC01CB019DA78CA70FC088EC90E09BA793
:104810008AA78AA59BA50197F1F79BA78AA78CA5D4
:104820009DA501979DA78CA78CA59DA5009769F7CD
:1048300024C06EA57FA588A999A90E944900DC0122
:10484000CB019DA78CA78CA59DA599A788A788A516
:1048500099A50197F1F799A788A70FC06FA978AD1F
:1048600089AD9AAD0E944900DC01CB018EAB8EA9C7
:104870008FA38FA18A95F1F78FA3FE01EB56FF4F0F
:104880008081982F917083E064E0492F0E94F21894
:10489000FE01EB56FF4F8081882F90E08270907070
:1048A00095958795982F83E065E0492F0E94F2182F
:1048B000FE01EB56FF4F8081882F90E0847090704E
:1048C0009595879595958795982F83E066E0492F74
:1048D0000E94F218FE01EB56FF4F8081882F90E076
:1048E00088709070959587959595879595958795FE
:1048F000982F83E067E0492F0E94F21880E090E053
:10490000A0E8BFE38BA39CA3ADA3BEA36BA17CA136
:104910008DA19EA120E030E04AEF54E40E941F02E6
:10492000DC01CB018F8F98A3A9A3BAA36F8D78A1C7
:1049300089A19AA120E030E040E85FE30E942504CD
:1049400088232CF481E090E09E8F8D8F3FC06F8D87
:1049500078A189A19AA120E03FEF4FE757E40E9498
:10496000C50318164CF56BA17CA18DA19EA120E07A
:1049700030E040E251E40E941F02DC01CB01BC01A7
:10498000CD010E944900DC01CB019E8F8D8F0FC0AD
:1049900088EC90E09C8F8B8F8B8D9C8D0197F1F72D
:1049A0009C8F8B8F8D8D9E8D01979E8F8D8F8D8D82
:1049B0009E8D009769F714C06F8D78A189A19AA187
:1049C0000E944900DC01CB019E8F8D8F8D8D9E8DC5
:1049D0009A8F898F898D9A8D0197F1F79A8F898F98
:1049E00081E063E040E00E94F21880E090E0A0E8FF
:1049F000BFE38D8B9E8BAF8BB88F6D897E898F893E
:104A0000988D2BEA3AEA4AE250E40E941F02DC0148
:104A1000CB01898B9A8BAB8BBC8B69897A898B890B
:104A20009C8920E030E040E85FE30E942504882371
:104A30001CF481E0888B91C069897A898B899C8973
:104A400020E030E04FE753E40E94C50318160CF055
:104A50007BC06D897E898F89988D20E030E04AE7A0
:104A600054E40E941903DC01CB018C879D87AE873B
:104A7000BF876C857D858E859F8520E030E04AEF7D
:104A800054E40E941F02DC01CB0188879987AA8722
:104A9000BB87688579858A859B8520E030E040E882
:104AA0005FE30E94250488232CF481E090E09F833B
:104AB0008E833FC0688579858A859B8520E03FEF9E
:104AC0004FE757E40E94C50318164CF56C857D85A9
:104AD0008E859F8520E030E040E251E40E941F0275
:104AE000DC01CB01BC01CD010E944900DC01CB01FE
:104AF0009F838E830FC088EC90E09D838C838C8194
:104B00009D810197F1F79D838C838E819F81019711
:104B10009F838E838E819F81009769F724C068856B
:104B200079858A859B850E944900DC01CB019F83A2
:104B30008E838E819F819B838A838A819B8101974B
:104B4000F1F79B838A830FC069897A898B899C8955
:104B50000E944900DC01CB01888B88898983898187
:104B60008A95F1F78983CB56DF4F0FB6F894DEBFF5
:104B70000FBECDBFCF91DF911F910F9108950F937D
:104B80001F93DF93CF93CDB7DEB7C559D0400FB693
:104B9000F894DEBF0FBECDBFFE01EB56FF4F808302
:104BA00081E062E041E00E94F218FE01EF56FF4F03
:104BB00080E090E0A0E8BFE380839183A283B38389
:104BC0008E0103571F4FFE01EF56FF4F6081718129
:104BD000828193812BEA3AEA4AE250E40E941F0262
:104BE000DC01CB01F80180839183A283B383FE01B2
:104BF000E357FF4F608171818281938120E030E033
:104C000040E85FE30E942504882334F4FE01E45762
:104C1000FF4F81E08083E0C0FE01E357FF4F6081DA
:104C200071818281938120E030E04FE753E40E945C
:104C3000C50318160CF0C0C0FE01EF56FF4F60818F
:104C400071818281938120E030E04AE754E40E9440
:104C50001903DC01CB01FE01E857FF4F80839183EC
:104C6000A283B3838E010C571F4FFE01E857FF4FFD
:104C7000608171818281938120E030E04AEF54E4C9
:104C80000E941F02DC01CB01F80180839183A28383
:104C9000B383FE01EC57FF4F608171818281938164
:104CA00020E030E040E85FE30E942504882344F4DC
:104CB000FE01EE57FF4F81E090E09183808364C056
:104CC000FE01EC57FF4F608171818281938120E06A
:104CD0003FEF4FE757E40E94C50318160CF043C09E
:104CE000FE01E857FF4F608171818281938120E04E
:104CF00030E040E251E40E941F02DC01CB018E0152
:104D00000E571F4FBC01CD010E944900DC01CB01B1
:104D1000F801918380831FC0FE01E058FF4F88ECAB
:104D200090E091838083FE01E058FF4F8081918164
:104D30000197F1F7FE01E058FF4F91838083DE0178
:104D4000AE57BF4FFE01EE57FF4F80819181019713
:104D500011969C938E93FE01EE57FF4F80819181B7
:104D60000097D1F64BC08E010E571F4FFE01EC5736
:104D7000FF4F60817181828193810E944900DC0133
:104D8000CB01F80191838083DE01A258BF4FFE0161
:104D9000EE57FF4F8081918111969C938E93FE0177
:104DA000E258FF4F808191810197F1F7FE01E258AF
:104DB000FF4F9183808322C08E0104571F4FFE0155
:104DC000E357FF4F60817181828193810E94490086
:104DD000DC01CB01F8018083DE01A358BF4FFE0147
:104DE000E457FF4F80818C93FE01E358FF4F808191
:104DF0008A95F1F7FE01E358FF4F808381E063E07D
:104E000041E00E94F218FE01E758FF4F80E090E079
:104E1000A0E8BFE380839183A283B3838E010B5804
:104E20001F4FFE01E758FF4F60817181828193819E
:104E30002BEA3AEA4AE250E40E941F02DC01CB016D
:104E4000F80180839183A283B383FE01EB58FF4F67
:104E5000608171818281938120E030E040E85FE3EE
:104E60000E942504882334F4FE01EC58FF4F81E0B2
:104E70008083E0C0FE01EB58FF4F60817181828129
:104E8000938120E030E04FE753E40E94C5031816F9
:104E90000CF0C0C0FE01E758FF4F60817181828134
:104EA000938120E030E04AE754E40E941903DC01DA
:104EB000CB01FE01E059FF4F80839183A283B3832E
:104EC0008E0104591F4FFE01E059FF4F608171812F
:104ED0008281938120E030E04AEF54E40E941F0277
:104EE000DC01CB01F80180839183A283B383FE01AF
:104EF000E459FF4F608171818281938120E030E02D
:104F000040E85FE30E942504882344F4FE01E6594B
:104F1000FF4F81E090E09183808364C0FE01E459FB
:104F2000FF4F608171818281938120E03FEF4FE7E5
:104F300057E40E94C50318160CF043C0FE01E05967
:104F4000FF4F608171818281938120E030E040E2F7
:104F500051E40E941F02DC01CB018E0106591F4F54
:104F6000BC01CD010E944900DC01CB01F801918315
:104F700080831FC0FE01E859FF4F88EC90E09183C9
:104F80008083FE01E859FF4F808191810197F1F7FD
:104F9000FE01E859FF4F91838083DE01A659BF4F80
:104FA000FE01E659FF4F80819181019711969C93F4
:104FB0008E93FE01E659FF4F808191810097D1F6D3
:104FC0004BC08E0106591F4FFE01E459FF4F60810F
:104FD0007181828193810E944900DC01CB01F8013B
:104FE00091838083DE01AA59BF4FFE01E659FF4F2E
:104FF0008081918111969C938E93FE01EA59FF4F17
:10500000808191810197F1F7FE01EA59FF4F918369
:10501000808322C08E010C581F4FFE01EB58FF4FBA
:1050200060817181828193810E944900DC01CB0102
:10503000F8018083DE01AB59BF4FFE01EC58FF4FF2
:1050400080818C93FE01EB59FF4F80818A95F1F7A7
:10505000FE01EB59FF4F8083FE01EB56FF4F80812D
:10506000882F90E08071907095958795959587959C
:105070009595879595958795982F83E064E0492FBE
:105080000E94F218FE01EB56FF4F8081882F90E0BE
:10509000807290709595879595958795959587954C
:1050A0009595879595958795982F83E065E0492F8D
:1050B0000E94F218FE01EB56FF4F8081882F90E08E
:1050C00080749070082E892F000C881F990B000C9B
:1050D000881F991F982F83E066E0492F0E94F218DD
:1050E000FE01EB56FF4F8081982F991F9927991F3A
:1050F00083E067E0492F0E94F218FE01EF59FF4F4D
:1051000080E090E0A0E8BFE380839183A283B38333
:105110008E01035A1F4FFE01EF59FF4F60817181CD
:105120008281938120E030E04AEF54E40E941F0224
:10513000DC01CB01F80180839183A283B383FE015C
:10514000E35AFF4F608171818281938120E030E0DA
:1051500040E85FE30E942504882344F4FE01E55AF9
:10516000FF4F81E090E09183808364C0FE01E35AA9
:10517000FF4F608171818281938120E03FEF4FE793
:1051800057E40E94C50318160CF043C0FE01EF5906
:10519000FF4F608171818281938120E030E040E2A5
:1051A00051E40E941F02DC01CB018E01055A1F4F02
:1051B000BC01CD010E944900DC01CB01F8019183C3
:1051C00080831FC0FE01E75AFF4F88EC90E0918377
:1051D0008083FE01E75AFF4F808191810197F1F7AB
:1051E000FE01E75AFF4F91838083DE01A55ABF4F2E
:1051F000FE01E55AFF4F80819181019711969C93A2
:105200008E93FE01E55AFF4F808191810097D1F680
:1052100027C08E01055A1F4FFE01E35AFF4F6081E0
:105220007181828193810E944900DC01CB01F801E8
:1052300091838083DE01A95ABF4FFE01E55AFF4FDB
:10524000808191818D939C93FE01E95AFF4F80816B
:1052500091810197F1F7FE01E95AFF4F9183808315
:1052600081E063E040E00E94F218FE01ED5AFF4F3A
:1052700080E090E0A0E8BFE380839183A283B383C2
:105280008E01015B1F4FFE01ED5AFF4F608171815E
:10529000828193812BEA3AEA4AE250E40E941F029B
:1052A000DC01CB01F80180839183A283B383FE01EB
:1052B000E15BFF4F608171818281938120E030E06A
:1052C00040E85FE30E942504882334F4FE01E25B9A
:1052D000FF4F81E08083E0C0FE01E15BFF4F608112
:1052E00071818281938120E030E04FE753E40E9496
:1052F000C50318160CF0C0C0FE01ED5AFF4F6081C7
:1053000071818281938120E030E04AE754E40E9479
:105310001903DC01CB01FE01E65BFF4F8083918323
:10532000A283B3838E010A5B1F4FFE01E65BFF4F32
:10533000608171818281938120E030E04AEF54E402
:105340000E941F02DC01CB01F80180839183A283BC
:10535000B383FE01EA5BFF4F60817181828193819B
:1053600020E030E040E85FE30E942504882344F415
:10537000FE01EC5BFF4F81E090E09183808364C08D
:10538000FE01EA5BFF4F608171818281938120E0A1
:105390003FEF4FE757E40E94C50318160CF043C0D7
:1053A000FE01E65BFF4F608171818281938120E085
:1053B00030E040E251E40E941F02DC01CB018E018B
:1053C0000C5B1F4FBC01CD010E944900DC01CB01E9
:1053D000F801918380831FC0FE01EE5BFF4F88ECD4
:1053E00090E091838083FE01EE5BFF4F808191818D
:1053F0000197F1F7FE01EE5BFF4F91838083DE01A1
:10540000AC5BBF4FFE01EC5BFF4F80819181019748
:1054100011969C938E93FE01EC5BFF4F80819181EE
:105420000097D1F642C08E010C5B1F4FFE01EA5B74
:10543000FF4F60817181828193810E944900DC016C
:10544000CB01F80191838083DE01A05CBF4FFE0198
:10545000EC5BFF4F8081918111969C938E93FE01AE
:10546000E05CFF4F808191810197F1F7FE01E05CE4
:10547000FF4F9183808319C08E01025B1F4FFE0195
:10548000E15BFF4F60817181828193810E944900BD
:10549000DC01CB01F8018083FE01E25BFF4F8081DC
:1054A0008FAF8FAD8A95F1F78FAF81E063E041E078
:1054B0000E94F21880E090E0A0E8BFE38BAF9CAFC1
:1054C000ADAFBEAF6BAD7CAD8DAD9EAD2BEA3AEA14
:1054D0004AE250E40E941F02DC01CB018FAB98AF7F
:1054E000A9AFBAAF6FA978AD89AD9AAD20E030E031
:1054F00040E85FE30E94250488231CF481E08EAB22
:1055000091C06FA978AD89AD9AAD20E030E04FE74A
:1055100053E40E94C50318160CF07BC06BAD7CAD44
:105520008DAD9EAD20E030E04AE754E40E941903BF
:10553000DC01CB018AAB9BABACABBDAB6AA97BA951
:105540008CA99DA920E030E04AEF54E40E941F029C
:10555000DC01CB018EA79FA7A8ABB9AB6EA57FA539
:1055600088A999A920E030E040E85FE30E94250483
:1055700088232CF481E090E09DA78CA73FC06EA506
:105580007FA588A999A920E03FEF4FE757E40E9443
:10559000C50318164CF56AA97BA98CA99DA920E022
:1055A00030E040E251E40E941F02DC01CB01BC016B
:1055B000CD010E944900DC01CB019DA78CA70FC043
:1055C00088EC90E09BA78AA78AA59BA50197F1F795
:1055D0009BA78AA78CA59DA501979DA78CA78CA5A5
:1055E0009DA5009769F724C06EA57FA588A999A9F4
:1055F0000E944900DC01CB019DA78CA78CA59DA52D
:1056000099A788A788A599A50197F1F799A788A7D1
:105610000FC06FA978AD89AD9AAD0E944900DC0139
:10562000CB018EAB8EA98FA38FA18A95F1F78FA3A3
:10563000FE01EB56FF4F8081982F917083E064E06C
:10564000492F0E94F218FE01EB56FF4F8081882FF0
:1056500090E08270907095958795982F83E065E033
:10566000492F0E94F218FE01EB56FF4F8081882FD0
:1056700090E0847090709595879595958795982F73
:1056800083E066E0492F0E94F218FE01EB56FF4FBF
:105690008081882F90E0887090709595879595957A
:1056A000879595958795982F83E067E0492F0E940D
:1056B000F21880E090E0A0E8BFE38BA39CA3ADA329
:1056C000BEA36BA17CA18DA19EA120E030E04AEF9A
:1056D00054E40E941F02DC01CB018F8F98A3A9A381
:1056E000BAA36F8D78A189A19AA120E030E040E8AB
:1056F0005FE30E94250488232CF481E090E09E8FD4
:105700008D8F3FC06F8D78A189A19AA120E03FEFD6
:105710004FE757E40E94C50318164CF56BA17CA116
:105720008DA19EA120E030E040E251E40E941F02E2
:10573000DC01CB01BC01CD010E944900DC01CB01A1
:105740009E8F8D8F0FC088EC90E09C8F8B8F8B8D00
:105750009C8D0197F1F79C8F8B8F8D8D9E8D01977E
:105760009E8F8D8F8D8D9E8D009769F714C06F8DE4
:1057700078A189A19AA10E944900DC01CB019E8FEA
:105780008D8F8D8D9E8D9A8F898F898D9A8D0197A2
:10579000F1F79A8F898F81E063E040E00E94F21870
:1057A00080E090E0A0E8BFE38D8B9E8BAF8BB88F3D
:1057B0006D897E898F89988D2BEA3AEA4AE250E416
:1057C0000E941F02DC01CB01898B9A8BAB8BBC8BB7
:1057D00069897A898B899C8920E030E040E85FE321
:1057E0000E94250488231CF481E0888B91C069897C
:1057F0007A898B899C8920E030E04FE753E40E944E
:10580000C50318160CF07BC06D897E898F89988D31
:1058100020E030E04AE754E40E941903DC01CB01A8
:105820008C879D87AE87BF876C857D858E859F859C
:1058300020E030E04AEF54E40E941F02DC01CB017B
:1058400088879987AA87BB87688579858A859B859C
:1058500020E030E040E85FE30E94250488232CF438
:1058600081E090E09F838E833FC0688579858A853B
:105870009B8520E03FEF4FE757E40E94C5031816D1
:105880004CF56C857D858E859F8520E030E040E27B
:1058900051E40E941F02DC01CB01BC01CD010E943A
:1058A0004900DC01CB019F838E830FC088EC90E020
:1058B0009D838C838C819D810197F1F79D838C83DF
:1058C0008E819F8101979F838E838E819F81009718
:1058D00069F724C0688579858A859B850E9449007F
:1058E000DC01CB019F838E838E819F819B838A8382
:1058F0008A819B810197F1F79B838A830FC0698915
:105900007A898B899C890E944900DC01CB01888BB4
:105910008889898389818A95F1F78983CB56DF4FFE
:105920000FB6F894DEBF0FBECDBFCF91DF911F91B0
:105930000F910895DF93CF9300D00F92CDB7DEB7CC
:105940009B838A8319820EC08981282F30E08A8147
:105950009B81FC01E20FF31F80810E94BF2589819A
:105960008F5F89838981282F30E08A819B81FC01A8
:10597000E20FF31F8081882339F70F900F900F906B
:10598000CF91DF910895DF93CF93CDB7DEB76497C2
:105990000FB6F894DEBF0FBECDBF698B7A8B8B8BB1
:1059A0009C8B8DB79EB70A970FB6F8949EBF0FBE1B
:1059B0008DBFEDB7FEB73196CE01019691838083FE
:1059C00080E190E09383828380E690E095838483F6
:1059D00089899A89AB89BC8986839783A087B18797
:1059E0000E94E3388DB79EB70A960FB6F8949EBF13
:1059F0000FBE8DBFCE0101960E949A2C64960FB601
:105A0000F894DEBF0FBECDBFCF91DF910895DF9335
:105A1000CF9300D000D00F92CDB7DEB78A836B83CF
:105A200019828A81282F30E03D832C838C819D81CF
:105A300081309105C1F02C813D81223031052CF45B
:105A40008C819D81009761F019C02C813D812230AD
:105A5000310569F08C819D818330910561F00EC024
:105A60008B8189830BC08B81805C898307C08B818C
:105A7000805F898303C08B81805B89838981806893
:105A80000E94E41E0F900F900F900F900F90CF91F7
:105A9000DF910895DF93CF9300D000D0CDB7DEB76C
:105AA00089836A835C834B8389816A810E94072D85
:105AB0008B819C810E949A2C0F900F900F900F90D9
:105AC000CF91DF910895DF93CF93CDB7DEB781E01B
:105AD0000E94E41ECF91DF910895DF93CF93CDB75D
